:020000040000FA
:020000001128C5
:08000800A000030EA1000B1D76
:100010000C280B11A70A2414210E8300A00E200E19
:1000200009008316031388012C2083160313061678
:100030008616061738204120CA20FF30A300A201EF
:10004000A401B8010C30AA00A901A801B701B601AA
:100050003C30B5001B215428831603130730810060
:1000600083120313810183120313E0308B00080015
:1000700083168711871294018312203094008C110B
:100080000800081000000000081403102130A92007
:10009000BF30A9200430A9201430A9202030A92085
:1000A0000C30A92083120800241C542824105B2043
:1000B0005A205428F8288B166F204D302702031D34
:1000C0000800A7018120241F662896202308003AF3
:1000D000031957212308013A0319AB210800B60A76
:1000E00008303602031D0800B6012308023A031D3A
:1000F0000800B503B508031D7F283030B5008A21FC
:1001000008000130B706A80A3C302802031D080089
:10011000A801A90A3C302902031D0800A901AA0A66
:1001200018302A02031D0800AA010800AC0A3C305E
:100130002C02031D0800AC01AD0A3C302D02031D4A
:100140000800AD01AE0A18302E02031D0800AE01F2
:100150000800831288100811930083128C1DAD28AB
:100160008C1183120815080083128814081193005B
:1001700083128C1DB8288C11831208150800FF3AD1
:10018000B4200800A000200807394038A92080309A
:10019000A92008008030A9204030A9200630A50001
:1001A0005430A6000030B420A60BD228A50BD028CE
:1001B0008030A9204030A920080083120313061ABA
:1001C000E6283818E728A4143814E7283810861AC7
:1001D000EE28B818EF282415B814EF28B810061B1D
:1001E000F62838190800A415381508003811080039
:1001F000DD20A41C0629A4102308FF3A031D0629AC
:10020000A20A033022020319A2011B21241D122974
:1002100024112308FF3A031DD8292208A300CA206D
:1002200042211229A41D1A29A411FF30A30024136E
:10023000CA201B210800CA202208003A031D2A29CF
:100240000030C2200D220230C220F4220430C2202D
:10025000922308002208013A031D38290030C220E9
:100260004A220230C22087220430C2209223080092
:100270000030C2204A220230C220F4220430C220C0
:10028000612308002308003A03194F292308013A83
:1002900003199D292308023A0319842908005121D2
:1002A0000800CA200030C2204A22572108004230EC
:1002B000A920A130A920DF21B130A920DF21280801
:1002C000EF21B530A9203308B000F921BB30A920B7
:1002D0003208B000F9212908EF21A530A920330800
:1002E000B000F921AB30A9203208B000F9212A086A
:1002F000EF219530A9203308B000F9219B30A920C7
:100300003208B000F9210800B6013C30B500CA201F
:100310008A21080092214330A9203508803EA92077
:10032000922308004330A9208030A9205430A60031
:100330000030B420A60B98290800A701AC01AD013C
:10034000AE01A3210800CA200030C220F4220330ED
:10035000C220AB2108004230A920A130A920DF2112
:10036000B130A920DF212C08EF21B530A9203308B6
:10037000B000F921BB30A9203208B000F9212D08C6
:10038000EF21A530A9203308B000F921AB30A92016
:100390003208B000F9212E08EF219530A92033084A
:1003A000B000F9219B30A9203208B000F9210800E3
:1003B0002308013A031D12294030A40612293718D8
:1003C000E8290030B4201430B4200030B4200800F4
:1003D0000030B4200030B4200030B4200800B20057
:1003E000B3010A303202031CF829B200B30AF12922
:1003F0000800B000A0000310A00DA00D20083007D9
:10040000AF000530A00005308A002F0800258A01C2
:10041000B420AF0AA00B032A08003E30BF204130B1
:10042000BF204130BF204130BF202230BF200030EC
:10043000BF207F30BF204030BF204030BF20403041
:10044000BF204030BF200030BF203E30BF204130B1
:10045000BF204130BF204130BF203E30BF200030A0
:10046000BF203E30BF204130BF204130BF2041304F
:10047000BF202230BF200030BF207F30BF20083097
:10048000BF201430BF202230BF204130BF200030B9
:10049000BF2008003E30B4204130B4204130B420A9
:1004A0004130B4202230B4200030B4207F30B4205A
:1004B0004030B4204030B4204030B4204030B4202C
:1004C0000030B4203E30B4204130B4204130B4205C
:1004D0004130B4203E30B4200030B4203E30B4204F
:1004E0004130B4204130B4204130B4202230B42017
:1004F0000030B4207F30B4200830B4201430B42051
:100500002230B4204130B4200030B42008004630FE
:10051000BF204930BF204930BF204930BF20313093
:10052000BF200030BF200130BF200130BF207F300E
:10053000BF200130BF200130BF200030BF203E303F
:10054000BF204130BF204130BF204130BF203E306E
:10055000BF200030BF207F30BF200930BF200930CE
:10056000BF200930BF200630BF200030BF207F30C1
:10057000BF202030BF201830BF202030BF207F3068
:10058000BF200030BF207E30BF201130BF2011308F
:10059000BF201130BF207E30BF200030BF2001308F
:1005A000BF200130BF207F30BF200130BF2001308D
:1005B000BF200030BF203E30BF204130BF2041303F
:1005C000BF204130BF202230BF200030BF207F300D
:1005D000BF200830BF200830BF200830BF207F3048
:1005E000BF200030BF2008004630B4204930B4207E
:1005F0004930B4204930B4203130B4200030B42028
:100600000130B4200130B4207F30B4200130B42058
:100610000130B4200030B4203E30B4204130B4204A
:100620004130B4204130B4203E30B4200030B420FA
:100630007F30B4200930B4200930B4200930B42010
:100640000630B4200030B4207F30B4202030B420F5
:100650001830B4202030B4207F30B4200030B420D3
:100660007E30B4201130B4201130B4201130B420C9
:100670007E30B4200030B4200130B4200130B420EA
:100680007F30B4200130B4200130B4200030B420D9
:100690003E30B4204130B4204130B4204130B42049
:1006A0002230B4200030B4207F30B4200830B42091
:1006B0000830B4200830B4207F30B4200030B4209B
:1006C00008007F30BF200830BF200830BF2008302E
:1006D000BF207F30BF200030BF204630BF204930D0
:1006E000BF204930BF204930BF203130BF2000300B
:1006F000BF207F30BF204030BF204030BF2040307F
:10070000BF204030BF200030BF207F30BF200230EC
:10071000BF200C30BF200230BF207F30BF20003010
:10072000BF2008007F30B4200830B4200830B42047
:100730000830B4207F30B4200030B4204630B420DC
:100740004930B4204930B4204930B4203130B4208D
:100750000030B4207F30B4204030B4204030B4208A
:100760004030B4204030B4200030B4207F30B4207A
:100770000230B4200C30B4200230B4207F30B420DA
:060780000030B420080067
:100A000082073E345134493445343E340034423454
:100A10007F344034003442346134513449344634F4
:100A20002134413445344B343134183414341234C5
:100A30007F341034273445344534453439343C341C
:100A40004A3449344934303401347134093405347A
:100A5000033436344934493449343634063449345D
:080A6000493429341E34332D02
:00000001FF
